:020000040800F2
:1000000000000824E1550008654E0008674E00080E
:10001000694E00086B4E00086D4E0008000000009D
:100020000000000000000000000000006F4E00080B
:10003000714E000800000000734E0008754E000865
:100040003156000831560008315600083156000874
:100050003156000831560008315600083156000864
:100060003156000831560008315600083156000854
:100070003156000831560008315600083156000844
:100080003156000831560008315600083156000834
:100090003156000831560008315600083156000824
:1000A0003156000831560008315600083156000814
:1000B0003156000831560008315600083156000804
:1000C00031560008315600083156000831560008F4
:1000D000315600087D4E00083156000831560008A0
:1000E0003156000831560008000000003156000863
:1000F00031560008315600083156000831560008C4
:1001000031560008315600083156000831560008B3
:10011000315600088D4E000831560008315600084F
:100120003156000831560008315600083156000893
:100130003156000831560008315600083156000883
:1001400000000000000000000000000000000000AF
:100150003156000831560008315600083156000863
:100160003156000831560008315600083156000853
:100170003156000831560008315600083156000843
:1001800031560008315600089D4E000831560008CF
:100190003156000831560008315600083156000823
:1001A0003156000831560008315600083156000813
:1001B0003156000831560008315600083156000803
:1001C00031560008315600083156000831560008F3
:1001D00031560008315600083156000831560008E3
:1001E00031560008315600083156000831560008D3
:1001F00031560008315600083156000831560008C3
:1002000031560008315600083156000831560008B2
:1002100031560008315600083156000831560008A2
:100220003156000831560008315600080000000021
:100230003156000831560008000000003156000811
:100240003156000831560008315600083156000872
:100250003156000831560008315600083156000862
:100260003156000831560008315600083156000852
:1002700031560008315600083156000800000000D1
:1002800031560008315600083156000800000000C1
:080290000000000031560008D7
:1002C00010B5054C237833B9044B13B10448AFF390
:1002D00000800123237010BD4016002400000000A0
:1002E00040FE000808B5034B1BB103490348AFF3B8
:1002F000008008BD000000004416002440FE0008F5
:1003000081F0004102E000BF83F0004330B54FEAC6
:1003100041044FEA430594EA050F08BF90EA020F33
:100320001FBF54EA000C55EA020C7FEA645C7FEAC6
:10033000655C00F0E2804FEA5454D4EB5555B8BFE9
:100340006D420CDD2C4480EA020281EA030382EA5A
:10035000000083EA010180EA020281EA0303362DEC
:1003600088BF30BD11F0004F4FEA01314FF4801CBF
:100370004CEA113102D0404261EB410113F0004FD1
:100380004FEA03334CEA133302D0524263EB430388
:1003900094EA050F00F0A780A4F10104D5F1200E26
:1003A0000DDB02FA0EFC22FA05F2801841F1000181
:1003B00003FA0EF2801843FA05F359410EE0A5F155
:1003C00020050EF1200E012A03FA0EFC28BF4CF086
:1003D000020C43FA05F3C01851EBE37101F000453C
:1003E00007D54FF0000EDCF1000C7EEB00006EEB49
:1003F0000101B1F5801F1BD3B1F5001F0CD34908D3
:100400005FEA30004FEA3C0C04F101044FEA445229
:1004100012F5800F80F09A80BCF1004F08BF5FEAB0
:10042000500C50F1000041EB045141EA050130BD90
:100430005FEA4C0C404141EB0101013C28BFB1F5A2
:10044000801FE9D291F0000F04BF01460020B1FAED
:1004500081F308BF2033A3F10B03B3F120020CDAC0
:100460000C3208DD02F1140CC2F10C0201FA0CF09E
:1004700021FA02F10CE002F11402D8BFC2F1200C03
:1004800001FA02F120FA0CFCDCBF41EA0C019040B9
:10049000E41AA2BF01EB0451294330BD6FEA040402
:1004A0001F3C1CDA0C340EDC04F11404C4F12002ED
:1004B00020FA04F001FA02F340EA030021FA04F3FF
:1004C00045EA030130BDC4F10C04C4F1200220FA56
:1004D00002F001FA04F340EA0300294630BD21FA94
:1004E00004F0294630BD94F0000F83F4801306BF5A
:1004F00081F480110134013D4EE77FEA645C18BF4E
:100500007FEA655C29D094EA050F08BF90EA020FE4
:1005100005D054EA000C04BF1946104630BD91EADC
:10052000030F1EBF0021002030BD5FEA545C05D1DF
:100530004000494128BF41F0004130BD14F580041E
:100540003CBF01F5801130BD01F0004545F0FE4192
:1005500041F470014FF0000030BD7FEA645C1ABFC7
:10056000194610467FEA655C1CBF0B46024650EAFE
:10057000013406BF52EA033591EA030F41F400212A
:1005800030BD00BF90F0000F04BF0021704730B5B0
:100590004FF4806404F132044FF000054FF0000185
:1005A00050E700BF90F0000F04BF0021704730B546
:1005B0004FF4806404F1320410F0004548BF40421B
:1005C0004FF000013EE700BF42004FEAE2014FEA70
:1005D00031014FEA02701FBF12F07F4393F07F4F4B
:1005E00081F06051704732F07F4208BF704793F04E
:1005F0007F4F04BF41F40021704730B54FF4607461
:1006000001F0004521F000411CE700BF50EA010263
:1006100008BF704730B54FF000050AE050EA01020C
:1006200008BF704730B511F0004502D5404261EB7C
:1006300041014FF4806404F132045FEA915C3FF4BD
:10064000D8AE4FF003025FEADC0C18BF03325FEA5A
:10065000DC0C18BF033202EBDC02C2F1200300FA0B
:1006600003FC20FA02F001FA03FE40EA0E0021FA30
:1006700002F11444BDE600BF70B54FF0FF0C4CF41E
:10068000E06C1CEA11541DBF1CEA135594EA0C0FD0
:1006900095EA0C0F00F0DEF82C4481EA030621EA0B
:1006A0004C5123EA4C5350EA013518BF52EA033546
:1006B00041F4801143F4801338D0A0FB02CE4FF0F8
:1006C0000005E1FB02E506F00042E0FB03E54FF028
:1006D0000006E1FB03569CF0000F18BF4EF0010E20
:1006E000A4F1FF04B6F5007F64F5407404D25FEA1C
:1006F0004E0E6D4146EB060642EAC62141EA5551CF
:100700004FEAC52040EA5E504FEACE2EB4F1FD0C10
:1007100088BFBCF5E06F1ED8BEF1004F08BF5FEA8E
:10072000500E50F1000041EB045170BD06F0004640
:1007300046EA010140EA020081EA0301B4EB5C04ED
:10074000C2BFD4EB0C0541EA045170BD41F48011E5
:100750004FF0000E013C00F3AB8014F1360FDEBF0A
:10076000002001F0004170BDC4F10004203C35DAE6
:100770000C341BDC04F11404C4F1200500FA05F369
:1007800020FA04F001FA05F240EA020001F000420A
:1007900021F0004110EBD37021FA04F642EB060180
:1007A0005EEA430E08BF20EAD37070BDC4F10C04AA
:1007B000C4F1200500FA04F320FA05F001FA04F26E
:1007C00040EA020001F0004110EBD37041F100015A
:1007D0005EEA430E08BF20EAD37070BDC4F1200565
:1007E00000FA05F24EEA020E20FA04F301FA05F2CD
:1007F00043EA020321FA04F001F0004121FA04F275
:1008000020EA020000EBD3705EEA430E08BF20EA44
:10081000D37070BD94F0000F0FD101F0004640007E
:1008200041EB010111F4801F08BF013CF7D041EA00
:10083000060195F0000F18BF704703F00046520004
:1008400043EB030313F4801F08BF013DF7D043EAD5
:100850000603704794EA0C0F0CEA135518BF95EA8B
:100860000C0F0CD050EA410618BF52EA4306D1D112
:1008700081EA030101F000414FF0000070BD50EA31
:10088000410606BF1046194652EA430619D094EABB
:100890000C0F02D150EA013613D195EA0C0F05D1A5
:1008A00052EA03361CBF104619460AD181EA0301F9
:1008B00001F0004141F0FE4141F470014FF00000B1
:1008C00070BD41F0FE4141F4780170BD70B54FF04C
:1008D000FF0C4CF4E06C1CEA11541DBF1CEA1355CC
:1008E00094EA0C0F95EA0C0F00F0A7F8A4EB0504AE
:1008F00081EA030E52EA03354FEA013100F08880A5
:100900004FEA03334FF0805545EA131343EA12636D
:100910004FEA022245EA111545EA10654FEA002622
:100920000EF000419D4208BF964244F1FD0404F5DB
:10093000407402D25B084FEA3202B61A65EB030537
:100940005B084FEA32024FF480104FF4002CB6EBF4
:10095000020E75EB030E22BFB61A754640EA0C0074
:100960005B084FEA3202B6EB020E75EB030E22BFB4
:10097000B61A754640EA5C005B084FEA3202B6EBF5
:10098000020E75EB030E22BFB61A754640EA9C00B4
:100990005B084FEA3202B6EB020E75EB030E22BF84
:1009A000B61A754640EADC0055EA060E18D04FEA42
:1009B000051545EA16754FEA06164FEAC30343EAE2
:1009C00052734FEAC2025FEA1C1CC0D111F4801FAF
:1009D0000BD141EA00014FF000004FF0004CB6E7A8
:1009E00011F4801F04BF01430020B4F1FD0C88BF47
:1009F000BCF5E06F3FF6AFAEB5EB030C04BFB6EB52
:100A0000020C5FEA500C50F1000041EB045170BD44
:100A10000EF0004E4EEA113114EB5C04C2BFD4EB71
:100A20000C0541EA045170BD41F480114FF0000EF5
:100A3000013C90E645EA060E8DE60CEA135594EA71
:100A40000C0F08BF95EA0C0F3FF43BAF94EA0C0F74
:100A50000AD150EA01347FF434AF95EA0C0F7FF4E9
:100A600025AF104619462CE795EA0C0F06D152EA3D
:100A700003353FF4FDAE1046194622E750EA410621
:100A800018BF52EA43067FF4C5AE50EA41047FF432
:100A90000DAF52EA43057FF4EBAE12E74FF0FF3C97
:100AA00006E000BF4FF0010C02E000BF4FF0010C68
:100AB0004DF804CD4FEA410C7FEA6C5C4FEA430CE1
:100AC00018BF7FEA6C5C1BD001B050EA410C0CBF30
:100AD00052EA430C91EA030F02BF90EA020F002092
:100AE000704710F1000F91EA030F58BF994208BFF9
:100AF00090422CBFD8176FEAE37040F001007047B6
:100B00004FEA410C7FEA6C5C02D150EA013C07D10C
:100B10004FEA430C7FEA6C5CD6D152EA033CD3D057
:100B20005DF8040B704700BF8446104662468C4651
:100B30001946634600E000BF01B5FFF7B7FF002884
:100B400048BF10F1000F01BD4DF808EDFFF7F4FFAD
:100B50000CBF012000205DF808FB00BF4DF808ED38
:100B6000FFF7EAFF34BF012000205DF808FB00BF5B
:100B70004DF808EDFFF7E0FF94BF012000205DF87D
:100B800008FB00BF4DF808EDFFF7CEFF94BF012032
:100B900000205DF808FB00BF4DF808EDFFF7C4FF2B
:100BA00034BF012000205DF808FB00BF4FEA41027E
:100BB000B2F1E04324BFB3F5001CDCF1FE5C0DD9BB
:100BC00001F0004C4FEAC0024CEA5070B2F1004F05
:100BD00040EB830008BF20F00100704711F0804F08
:100BE00021D113F13872BCBF01F00040704741F4CD
:100BF00080114FEA5252C2F11802C2F1200C10FAD1
:100C00000CF320FA02F018BF40F001004FEAC123B4
:100C10004FEAD32303FA0CFC40EA0C0023FA02F358
:100C20004FEA4303CCE77FEA625307D150EA01332E
:100C30001EBF4FF0FE4040F44000704701F00040FE
:100C400040F0FE4040F40000704700BF53B94AB97D
:100C5000002908BF00281CBF4FF0FF314FF0FF30C4
:100C600000F074B9ADF1080C6DE904CE00F006F89F
:100C7000DDF804E0DDE9022304B070472DE9F04718
:100C8000089D04468E46002B4DD18A42944669D970
:100C9000B2FA82F252B101FA02F3C2F1200120FA53
:100CA00001F10CFA02FC41EA030E94404FEA1C48A1
:100CB000210CBEFBF8F61FFA8CF708FB16E341EA9D
:100CC000034306FB07F199420AD91CEB030306F123
:100CD000FF3080F01F81994240F21C81023E634444
:100CE0005B1AA4B2B3FBF8F008FB103344EA0344E8
:100CF00000FB07F7A7420AD91CEB040400F1FF33FD
:100D000080F00A81A74240F207816444023840EA39
:100D10000640E41B00261DB1D4400023C5E9004372
:100D20003146BDE8F0878B4209D9002D00F0EF80F5
:100D30000026C5E9000130463146BDE8F087B3FA28
:100D400083F6002E4AD18B4202D3824200F2F98010
:100D5000841A61EB030301209E46002DE0D0C5E913
:100D6000004EDDE702B9FFDEB2FA82F2002A40F05F
:100D70009280A1EB0C014FEA1C471FFA8CFE012662
:100D8000200CB1FBF7F307FB131140EA01410EFB06
:100D900003F0884208D91CEB010103F1FF3802D2AD
:100DA000884200F2CB804346091AA4B2B1FBF7F0A7
:100DB00007FB101144EA01440EFB00FEA64508D9CA
:100DC0001CEB040400F1FF3102D2A64500F2BB8007
:100DD0000846A4EB0E0440EA03409CE7C6F1200756
:100DE000B34022FA07FC4CEA030C20FA07F401FA9C
:100DF00006F31C43F9404FEA1C4900FA06F3B1FB25
:100E0000F9F8200C1FFA8CFE09FB181140EA014189
:100E100008FB0EF0884202FA06F20BD91CEB010126
:100E200008F1FF3A80F08880884240F28580A8F17E
:100E300002086144091AA4B2B1FBF9F009FB1011D0
:100E400044EA014100FB0EFE8E4508D91CEB01016E
:100E500000F1FF346CD28E456AD90238614440EA11
:100E60000840A0FB0294A1EB0E01A142C846A64691
:100E700056D353D05DB1B3EB080261EB0E0101FA1A
:100E800007F722FA06F3F1401F43C5E90071002677
:100E90003146BDE8F087C2F12003D8400CFA02FCCD
:100EA00021FA03F3914001434FEA1C471FFA8CFEDD
:100EB000B3FBF7F007FB10360B0C43EA064300FBCD
:100EC0000EF69E4204FA02F408D91CEB030300F16B
:100ED000FF382FD29E422DD9023863449B1B89B222
:100EE000B3FBF7F607FB163341EA034106FB0EF3AB
:100EF0008B4208D91CEB010106F1FF3816D28B4258
:100F000014D9023E6144C91A46EA004638E72E4623
:100F1000284605E70646E3E61846F8E64B45A9D21B
:100F2000B9EB020864EB0C0E0138A3E74646EAE78A
:100F3000204694E74046D1E7D0467BE7023B614438
:100F400032E7304609E76444023842E7704700BFA1
:100F50000000000000000000000000000000000091
:100F60000000000000000000000000000000000081
:100F70000000000000000000000000000000000071
:100F800090F800F06DE9024520F007016FF0000CC9
:100F900010F0070491F820F040F049804FF0000471
:100FA0006FF00700D1E9002391F840F000F108004C
:100FB00082FA4CF2A4FA8CF283FA4CF3A2FA8CF384
:100FC0004BBBD1E9022382FA4CF200F10800A4FAEB
:100FD0008CF283FA4CF3A2FA8CF3E3B9D1E904233F
:100FE00082FA4CF200F10800A4FA8CF283FA4CF376
:100FF000A2FA8CF37BB9D1E9062301F1200182FA30
:101000004CF200F10800A4FA8CF283FA4CF3A2FA35
:101010008CF3002BC6D0002A04BF04301A4612BA43
:10102000B2FA82F2FDE8024500EBD2007047D1E946
:10103000002304F00305C4F100004FEAC50514F0D5
:10104000040F91F840F00CFA05F562EA05021CBFA6
:1010500063EA050362464FF00004A9E700000000C0
:1010600001F0FF01102A2BDB10F0070F08D010F859
:10107000013B013A8B422DD010F0070F42B3F6D15D
:10108000F0B441EA012141EA014122F007047FF076
:1010900000070023F0E80256083C85EA010586EACD
:1010A000010685FA47F5A3FA87F586FA47F6A5FA09
:1010B00087F68EB9EED1F0BC01F0FF0102F0070215
:1010C00032B110F8013B013A83EA010313B1F8D1C0
:1010D0000020704701387047002D06BF35460338A1
:1010E000073815F0010F07D1013015F4807F02BFDA
:1010F000013015F4C03F0130F0BC0138704700BF2B
:10110000844641EA000313F003036DD1403A41D312
:1011100051F8043B40F8043B51F8043B40F8043BD1
:1011200051F8043B40F8043B51F8043B40F8043BC1
:1011300051F8043B40F8043B51F8043B40F8043BB1
:1011400051F8043B40F8043B51F8043B40F8043BA1
:1011500051F8043B40F8043B51F8043B40F8043B91
:1011600051F8043B40F8043B51F8043B40F8043B81
:1011700051F8043B40F8043B51F8043B40F8043B71
:1011800051F8043B40F8043B51F8043B40F8043B61
:10119000403ABDD2303211D351F8043B40F8043B01
:1011A00051F8043B40F8043B51F8043B40F8043B41
:1011B00051F8043B40F8043B103AEDD20C3205D311
:1011C00051F8043B40F8043B043AF9D2043208D009
:1011D000D2071CBF11F8013B00F8013B01D30B887B
:1011E00003806046704700BF082A13D38B078DD059
:1011F00010F003038AD0C3F10403D21ADB071CBF2B
:1012000011F8013B00F8013B80D331F8023B20F894
:10121000023B7BE7043AD9D3013A11F8013B00F8CD
:10122000013BF9D20B7803704B7843708B78837055
:10123000604670474FEA410C7FEA6C5C02D150EA8D
:10124000013C0AD14FEA430C7FEA6C5C02D152EABE
:10125000033C02D14FF0000070474FF0010070478F
:101260004FEA410212F5001215D211D56FF47873CE
:10127000B3EB625212D94FEAC12343F0004343EA71
:10128000505311F0004F23FA02F018BF404270474C
:101290004FF00000704750EA013005D111F00040D6
:1012A00008BF6FF0004070474FF00000704700BF6C
:1012B000014B1860704700BF5C16002410B44FF05B
:1012C000E02254690C4B1B6800FB03FC936900216E
:1012D00004E0E01A02441144614509D21A464FF075
:1012E000E0239B699A42FAD0F3D9D21A1144F3E76A
:1012F0005DF8044B704700BF5C16002408B54FF43E
:101300007A7303FB00F0FFF7D9FF08BD08B580B280
:10131000FFF7F4FF08BD00002DE9F0478CB0002472
:101320000794089409940A940B94524BD3F8E02044
:1013300042F01002C3F8E020D3F8E02002F01002DF
:101340000192019AD3F8E02042F00402C3F8E020B1
:10135000D3F8E02002F004020292029AD3F8E020CF
:1013600042F08002C3F8E020D3F8E02002F08002CF
:101370000392039AD3F8E02042F00102C3F8E02080
:10138000D3F8E02002F001020492049AD3F8E0209E
:1013900042F00202C3F8E020D3F8E02002F002029B
:1013A0000592059AD3F8E02042F00802C3F8E02045
:1013B000D3F8E03003F008030693069BDFF8C0A0E3
:1013C00022461821504604F0F5FDDFF8B890224679
:1013D00042F2B011484604F0EDFDDFF8AC80224641
:1013E000E021404604F0E6FD234E224641F28241D0
:1013F000304604F0DFFD01221146304604F0DAFDEC
:101400001E4F2246F821384604F0D4FD18230793D6
:101410000125089509940A9407A9504604F0BAFCDE
:1014200042F2B0130793089509940A9407A9484615
:1014300004F0B0FCE0230793089509940A9407A9E7
:10144000404604F0A7FC41F28343079308950994B2
:101450000A9407A9304604F09DFCF82307930895E9
:1014600009940A9407A9384604F094FC0CB0BDE82E
:10147000F08700BF00440258000C025800040258D4
:101480000010025800080258000002582DE9F04FE1
:1014900083B08046A2EB000A8946A3EB010BBAF1A8
:1014A000000F0DDD01220092BBF1000F14DD0123BE
:1014B0000193DA451CDD564600252F462C461BE0DD
:1014C000BAF1000F05D0A0EB020A4FF0FF320092F4
:1014D000EAE7CDF800A0E7E7BBF1000F05D0A1EBEC
:1014E000030B4FF0FF330193E3E7CDF804B0E0E7DF
:1014F0005E46E1E70134A4B2731C9C4212DC1FFA81
:1015000089F11FFA88F000F0C3F857445D44BE42E9
:1015100002DABF1B009B9844AE42EBDAAD1B019B85
:101520009944E7E703B0BDE8F08F000010B5064C22
:101530004FF40023A3614FF48013A36102F03EF93E
:101540000823A36110BD00BF0004025810B5054C6C
:101550004FF40023A3611023A36102F02FF90823A5
:10156000A36110BD0004025810B50C46FFF7DEFF62
:10157000E0B2FFF7EBFF10BD08B5024B187AFFF79A
:10158000D5FF08BD6416002438B50446074D4FF456
:101590000023AB611023AB61000A02F00FF9E0B247
:1015A00002F00CF90823AB6138BD00BF00040258FB
:1015B00010B5064C4FF40013A3616420FFF7A6FE9C
:1015C0002023A3613220FFF7A1FE10BD00040258C2
:1015D0002DE9F04107460D4616461C46DFF84880C7
:1015E00098F80A00FFF7A2FF0020FFF7AFFFF8B25C
:1015F000FFF7ACFF0020FFF7A9FFF0B2FFF7A6FF4F
:1016000098F80C00FFF792FF0020FFF79FFFE8B269
:10161000FFF79CFF0020FFF799FFE0B2FFF796FF6E
:10162000FFF7AAFFBDE8F0816416002470B50546F7
:10163000124B1A885B88013B013A9BB292B200219F
:101640000846FFF7C5FF0E4B4FF400229A611022A7
:101650009A61002608E02846FFF796FF0134074B01
:101660001B88A342F7D80136044B5B88B34201D9EB
:101670000024F4E7024B08229A6170BD641600242E
:101680000004025808B502460B46FFF7A1FF08BD4B
:1016900008B5FFF7F7FF024B1888FFF775FF08BD85
:1016A0006016002408B51A4B2A225A812B229A81EF
:1016B0002C221A8103280CD8DFE800F0020C151F39
:1016C000134B80221A80A0225A80C0213620FFF7B7
:1016D0004BFF08BD0E4BA021198080225A80362076
:1016E000FFF742FFF5E70A4B80221A80A0225A80BA
:1016F00000213620FFF738FFEBE7054BA0221A80C8
:1017000080225A8060213620FFF72EFFE1E700BFDC
:101710006416002408B5FFF74BFF1120FFF706FF02
:101720007820FFF7F3FDB120FFF700FF0120FFF75E
:101730000DFF2C20FFF70AFF2D20FFF707FFB22037
:10174000FFF7F4FE0120FFF701FF2C20FFF7FEFE5C
:101750002D20FFF7FBFEB320FFF7E8FE0120FFF787
:10176000F5FE2C20FFF7F2FE2D20FFF7EFFE012003
:10177000FFF7ECFE2C20FFF7E9FE2D20FFF7E6FE39
:10178000B420FFF7D3FE0720FFF7E0FEC020FFF7ED
:10179000CDFEA220FFF7DAFE0220FFF7D7FE84205D
:1017A000FFF7D4FEC120FFF7C1FEC520FFF7CEFE34
:1017B000C220FFF7BBFE0A20FFF7C8FE0020FFF79C
:1017C000C5FEC320FFF7B2FE8A20FFF7BFFE2A2026
:1017D000FFF7BCFEC420FFF7A9FE8A20FFF7B6FE84
:1017E000EE20FFF7B3FEC520FFF7A0FE0E20FFF7A7
:1017F000ADFE3620FFF79AFEC020FFF7A7FEE020DF
:10180000FFF794FE0F20FFF7A1FE1A20FFF79EFEC0
:101810000F20FFF79BFE1820FFF798FE2F20FFF701
:1018200095FE2820FFF792FE2020FFF78FFE222052
:10183000FFF78CFE1F20FFF789FE1B20FFF786FEB7
:101840002320FFF783FE3720FFF780FE0020FFF7FD
:101850007DFE0720FFF77AFE0220FFF777FE1020BB
:10186000FFF774FEE120FFF761FE0F20FFF76EFE29
:101870001B20FFF76BFE0F20FFF768FE1720FFF716
:1018800065FE3320FFF762FE2C20FFF75FFE292064
:10189000FFF75CFE2E20FFF759FE3020FFF756FEC3
:1018A0003020FFF753FE3920FFF750FE3F20FFF7AF
:1018B0004DFE0020FFF74AFE0720FFF747FE0320FA
:1018C000FFF744FE1020FFF741FE2A20FFF72EFE0F
:1018D0000020FFF73BFE0020FFF738FE0020FFF757
:1018E00035FE7F20FFF732FE2B20FFF71FFE002082
:1018F000FFF72CFE0020FFF729FE0020FFF726FE51
:101900009F20FFF723FEF020FFF710FE0120FFF7D6
:101910001DFEF620FFF70AFE0020FFF717FE3A2013
:10192000FFF704FE0520FFF711FE2920FFF7FEFD5B
:101930000120FFF7B7FE044B80229A614FF6FF703B
:10194000FFF774FE08BD00BF000C0258002856D0F7
:1019500001280AD002280DD010B4032817D004287B
:101960002CD000205DF8044B7047264B585C303873
:1019700080B27047234A535C303B0131505C03EB2B
:10198000830300EB430080B2303880B270471D4CB7
:10199000605C30384B1CE35C303B00EB800000EBBC
:1019A000800203EB8303580000EB820080B2023117
:1019B000635C184480B2303880B2D3E7114C605C6D
:1019C00030384B1CE35C303BC0EB401200EB820232
:1019D00003EB830303EB8303980000EBC20080B2A8
:1019E000CB1CE35C303B03EB830300EB430080B292
:1019F0000431635C184480B2303880B2B2E7002012
:101A0000704700BF741600242DE9F04F83B0002307
:101A1000994619461F4618461D4607E05A1C444C75
:101A2000A25C303A434C22700133DBB2C72B40D862
:101A30003F4AD25C682AF1D0782A2BD0792A2CD060
:101A4000722A2FD0692AEFD15C1EE4B2461BF6B28F
:101A50000136F6B2A1EB07085FFA88F808F1010831
:101A60005FFA88F8A4EB0904E4B20134E4B2314B24
:101A700093F800A00AF1FF33DBB2022B1BD92D4BE8
:101A800093F800A0AAF10403DBB2022B33D903B010
:101A9000BDE8F08F5D1CEDB2C6E7581EC0B25F1CFA
:101AA000FFB2C1E7591EC9B203F101095FFA89F912
:101AB000BAE70024CAE729463046FFF747FFDFF8B8
:101AC00090B0ABF8000039464046FFF73FFF1A4B95
:101AD000188049462046FFF739FF184B1880BBF89D
:101AE0000020154B1B8800909BB292B251461448BF
:101AF00008F0B8F8C3E729463046FFF727FF114D35
:101B0000288039464046FFF721FF0F4E3080494676
:101B10002046FFF71BFF0D4B18802A883388009062
:101B20009BB292B25146064808F09CF8AFE700BF5E
:101B3000741600246B1700246417002486170024F1
:101B400058FE000862170024661700248817002436
:101B50006017002408B5434BD3ED007A30EE270A16
:101B6000414B83ED000A414B93ED007A77EE407ACA
:101B70003F4BC3ED007ADFED3F6AF4EEE67AF1EE1B
:101B800010FA09D5B5EEC00AF1EE10FA04DDB5EE93
:101B9000C07AF1EE10FA04D4354B1A68364B1A604D
:101BA00015E09FED367A77EE877AC3ED007AF3E79A
:101BB000B0EE087A67EEC77AFCEEE77A17EE900A85
:101BC00002F07CF929E02A4B1A682B4B1A602A4B49
:101BD000D3ED007AB6EE007AF4EEC77AF1EE10FAA1
:101BE00006DCBEEE007AF4EEC77AF1EE10FA37D5D5
:101BF000234B1B788BB1224B00221A70F5EEC07A72
:101C0000F1EE10FAD4DDB0EE087A67EE877AFCEEDA
:101C1000E77A17EE900A02F0E9F8144BD3ED006A68
:101C2000114B93ED007A76EEC77A114BC3ED007A33
:101C30009FED106AF4EEC67AF1EE10FAC3D5B5EE58
:101C4000C07AF1EE10FABEDDF5EEC06AF1EE10FAE0
:101C5000B9D59FED0A7A77EE877AC3ED007AB2E7BD
:101C600008BD00BF78170024801700244017002407
:101C70006C170024000034C3701700240000B44324
:101C8000841700240000000038B52DED028B4C4D68
:101C90002B684C4C236001F0D9FF95ED007AD4ED10
:101CA000007A77EE676A484BC3ED006AF5EEC07ABA
:101CB000F1EE10FA04DDB5EEC07AF1EE10FA04D4BC
:101CC000414B1A68414B1A6030E0DFED417AF4EE87
:101CD000E76AF1EE10FAF3D5DFED3E7A76EEA76A09
:101CE000C3ED006AECE7F1EE087A28EE678AFCEEB5
:101CF000C87A17EE900A02F0E1F8314BD3ED006A92
:101D0000304BD3ED007A36EEE77A2F4B83ED007A35
:101D1000F5EEC07AF1EE10FA04DDF5EEC06AF1EEF0
:101D200010FA31D4284B1A68284B1A60274B93EDD0
:101D3000008A18EE100AFEF747FC04460D461CA365
:101D4000D3E90023FEF728FF38B91BA3D3E900230A
:101D500020462946FEF702FF20B31F4B1B78002BBD
:101D6000CBD01D4B00221A70B5EEC08AF1EE10FAEE
:101D7000B9DDF1EE087A28EE278AFCEEC87A17EE74
:101D8000900A02F033F8B8E7DFED117AB4EEE77AA3
:101D9000F1EE10FAC6D5DFED0F7A37EE277A83ED34
:101DA000007ABFE7BDEC028B38BD00BFAFF3008007
:101DB0009A9999999999E93F9A9999999999E9BF25
:101DC00040170024801700246C170024701700248B
:101DD000000034C30000B443841700240000000056
:101DE00038B52DED028B484D2B68484C236001F02F
:101DF00095FFD5ED006AD4ED007A36EEE77A444BD4
:101E000083ED007AF5EEC07AF1EE10FA04DDF5EE1E
:101E1000C06AF1EE10FA04D43D4B1A683D4B1A60CB
:101E200029E0DFED3D7A37EE277A83ED007AF3E79C
:101E3000F1EE087A28EE678AFCEEC87A17EE900A6F
:101E400002F03CF8304BD3ED006A304BD3ED007A12
:101E500036EEE77A2E4B83ED007AF5EEC07AF1EE9E
:101E600010FA04DDF5EEC06AF1EE10FA31D4284B19
:101E70001A68284B1A60274B93ED008A18EE100A57
:101E8000FEF7A2FB04460D461BA3D3E90023FEF791
:101E900083FE38B91AA3D3E9002320462946FEF76A
:101EA0005DFE20B31D4B1B78002BCBD01B4B0022BB
:101EB0001A70B5EEC08AF1EE10FAB9DDF1EE087ACB
:101EC00028EE278AFCEEC87A17EE900A01F08EFF02
:101ED000B8E7DFED137AB4EEE77AF1EE10FAC6D583
:101EE000DFED0D7A37EE277A83ED007ABFE7BDECA0
:101EF000028B38BDAFF300809A9999999999E93F7F
:101F00009A9999999999E9BF40170024801700245C
:101F10006C170024701700240000B44384170024B9
:101F2000000034C310B504460268D54B9A420AD06B
:101F30002268D44B9A4200F075832268D24B9A42B1
:101F400000F08F8310BDD14A1078A0F13001D04B42
:101F500019705178303959709278303A9A70312826
:101F600025D0CA4B1B78322B00F0B780C74B1B78AB
:101F7000332B00F03181C54B1B79312B00F0B88138
:101F8000C24B1B79322B00F04A82C04B1B79332B9A
:101F900000F0C48250231A4628211846FFF776FA2B
:101FA0003C235A2219464620FFF770FAC0E7642303
:101FB0000A2214211046FFF769FAB44B5B78322BE2
:101FC00047D0B24B5B78332BCBD1B24B01221A7086
:101FD00003225A7002229A701423232219461846AB
:101FE000FFF754FA3C23232214211046FFF74EFA40
:101FF0003C23232219461420FFF748FA64232322A6
:102000003C211046FFF742FA64232322194614208C
:10201000FFF73CFA14233C2219462D20FFF736FA2D
:102020003C231A4614211846FFF730FA3C231A467F
:1020300019462D20FFF72AFA64232D223C21104651
:10204000FFF724FA64233C2219462D20FFF71EFADD
:1020500087E7904B01221A7002225A7003229A706D
:102060001423232219461846FFF710FA3C23232293
:1020700014211046FFF70AFA3C23232219461420A4
:10208000FFF704FA642314223C211046FFF7FEF9FF
:102090006423232219461420FFF7F8F914233C2265
:1020A00019462D20FFF7F2F93C231A461421184651
:1020B000FFF7ECF93C231A4619462D20FFF7E6F905
:1020C00064233C2211461046FFF7E0F964233C22CA
:1020D00019462D20FFF7DAF973E714231922194660
:1020E0000A20FFF7D3F93C23192214211046FFF7E9
:1020F000CDF93C23192219460A20FFF7C7F96423BA
:102100000A223C211046FFF7C1F96423192219461F
:102110000A20FFF7BBF95D4B5B78312B30D05B4B6E
:102120005B78332B7FF422AF5A4B02221A700322C2
:102130005A7001229A7064233C2214211046FFF742
:10214000A5F91423322219462320FFF79FF93C23D7
:10215000322214211046FFF799F93C233222194606
:102160002320FFF793F9642332223C211046FFF726
:102170008DF96423322219462320FFF787F9F5E60B
:10218000444B02221A7001225A7003229A7064236F
:10219000232214211046FFF779F914233C22194613
:1021A0002D20FFF773F93C231A4614211846FFF738
:1021B0006DF93C231A4619462D20FFF767F9642371
:1021C0003C2211461046FFF761F964233C22194670
:1021D0002D20FFF75BF9A2E71423192219460A20E4
:1021E000FFF754F93C23192214211046FFF74EF94A
:1021F0003C23192219460A20FFF748F964231922C3
:102200003C211046FFF742F96423192219460A209F
:10221000FFF73CF91D4B5B78312B3DD01B4B5B78B6
:10222000322B7FF4A8AE1B4B03221A7002225A7085
:1022300001229A7064233C2214211046FFF726F9EC
:102240001423322219462320FFF720F93C2332229F
:1022500014211046FFF71AF93C2332221946232095
:10226000FFF714F9642323223C211046FFF70EF9EF
:102270006423322219462320FFF708F97BE600BFCA
:102280000010014000780040005000404C1700242E
:102290006817002444170024E04B03221A7001221F
:1022A0005A7002229A706423232214211046FFF7E9
:1022B000EDF814233C2219462D20FFF7E7F83C23C4
:1022C0001A4614211846FFF7E1F83C231A4619462E
:1022D0002D20FFF7DBF864232D223C211046FFF769
:1022E000D5F864233C2219462D20FFF7CFF895E757
:1022F00064231A4614211846FFF7C8F8C84B5B79C7
:10230000322B48D0C64B5B79332B7FF439AEC34BAD
:102310000122DA7003221A7102225A7114237D22DB
:1023200019466E20FFF7B2F83C237D221421104697
:10233000FFF7ACF83C237D2219466E20FFF7A6F884
:1023400064237D223C211046FFF7A0F864237D2200
:1023500019466E20FFF79AF8142396221946872013
:10236000FFF794F83C23962214211046FFF78EF8CD
:102370003C23962219468720FFF788F8642387229A
:102380003C211046FFF782F86423962219468720E5
:10239000FFF77CF8F4E5A14B0122DA7002221A71F2
:1023A00003225A7114237D2219466E20FFF76EF81E
:1023B0003C237D2214211046FFF768F83C237D2240
:1023C00019466E20FFF762F864236E223C21104606
:1023D000FFF75CF864237D2219466E20FFF756F85C
:1023E0001423962219468720FFF750F83C239622A3
:1023F00014211046FFF74AF83C23962219468720FD
:10240000FFF744F8642396223C211046FFF73EF87C
:102410006423962219468720FFF738F872E71423C1
:10242000732219466420FFF731F83C2373221421EC
:102430001046FFF72BF83C23732219466420FFF760
:1024400025F864231A463C211846FFF71FF8642339
:10245000732219461846FFF719F8714B5B79312B37
:1024600030D06F4B5B79332B7FF48FAD6B4B0222F7
:10247000DA7003221A7101225A7164239622142100
:102480001046FFF703F814238C2219467D20FEF72F
:10249000FDFF3C238C2214211046FEF7F7FF3C235E
:1024A0008C2219467D20FEF7F1FF64238C223C210B
:1024B0001046FEF7EBFF64238C2219467D20FEF7C1
:1024C000E5FF62E5554B0222DA7001221A71032200
:1024D0005A7164237D2214211046FEF7D7FF14237E
:1024E000962219468720FEF7D1FF3C23962214211D
:1024F0001046FEF7CBFF3C23962219468720FEF7B5
:10250000C5FF642396223C211046FEF7BFFF6423DB
:10251000962219468720FEF7B9FFA2E714237322FB
:1025200019466420FEF7B2FF3C23732214211046A3
:10253000FEF7ACFF3C23732219466420FEF7A6FF8A
:10254000642373223C211046FEF7A0FF642373220C
:1025500019461846FEF79AFF314B5B79312B30D084
:102560002F4B5B79322B7FF415AD2C4B0322DA70A5
:1025700002221A7101225A716423962214211046F4
:10258000FEF784FF14238C2219467D20FEF77EFF80
:102590003C238C2214211046FEF778FF3C238C222A
:1025A00019467D20FEF772FF64237D223C211046F0
:1025B000FEF76CFF64238C2219467D20FEF766FF30
:1025C000E8E4164B0322DA7001221A7102225A71D2
:1025D00064237D2214211046FEF758FF142396220F
:1025E00019468720FEF752FF3C23962214211046FD
:1025F000FEF74CFF3C23962219468720FEF746FF44
:10260000642387223C211046FEF740FF6423962274
:1026100019468720FEF73AFFA2E700BF44170024BF
:102620004C170024184A138801339BB21380013BD6
:10263000164A12781649CA54692A07D0134900234A
:102640000B700122134807F0D9F976E4FFF7DCF9A3
:10265000C82200210E4807F0B3FA0B4B00221A8063
:10266000ECE70D490A780D4B1A704A785A708A784F
:102670009A70CA78DA700A4B01221A70042209484B
:1026800007F0BCF95EE400BF4A1700247C17002461
:1026900074160024341A00243C1700244017002428
:1026A00084170024A019002472B6FEE700B59FB07D
:1026B0004C2200210BA807F083FA2022002103A856
:1026C00007F07EFA022003F085FC00230093384BCC
:1026D000DA6A22F00102DA62DB6A03F00103009396
:1026E000344B9A6942F440429A619B6903F4404337
:1026F0000093009B2F4B9B6913F4005FFAD02E4B85
:10270000D3F8F42042F00202C3F8F420D3F8F430F6
:1027100003F002030193019B00230293254B9A6966
:1027200042F440429A619B6903F440430293204B78
:10273000DA6A42F00102DA62DB6A03F00103029313
:10274000029B1C4B9B6913F4005FFAD001220B9291
:102750004FF480330C930223149315931692502256
:102760001792189319931A930C231B9300231C930D
:102770001D930BA803F058FCB0B93F230393032328
:10278000049300230593082306934023079308939B
:102790004FF4806209920A93042103A804F098F888
:1027A00020B91FB05DF804FBFFF77EFFFFF77CFF49
:1027B000000400580048025800440258000000007D
:1027C00070B502F05FFFFFF771FFFEF7A5FDFEF7A2
:1027D000A1FF02F09DFC02F047FC02F035FD02F083
:1027E00067FD02F0C9FC02F0FBFC07225C495D4872
:1027F00007F004F901225C495C4807F0FFF8042265
:102800005B495C4807F0FAF85B4C0421204605F070
:1028100047FD0821204605F043FD0C21204605F028
:102820003FFD564800F05AFF4FF4F070FEF740FDB0
:10283000534D01221021284603F0BCFB0122082140
:10284000284603F0B7FB4FF47A70FEF757FD50238C
:102850001A4628211846FEF719FE3C235A2219462B
:102860004620FEF713FE236840F206421A6441F246
:102870008830FEF743FD23684FF4E1629A63414ECE
:102880003368414D2B60414C23604FF47A70FFF761
:10289000A7FA33682B6023604FF47A7002F03AFA9B
:1028A0004FF4965001F01EFF394B1B78002BFBD0E4
:1028B000314B1B6840F642121A6441F2DF1001F0FE
:1028C00011FF4FF4C870FFF7DFF9314B1A78314B25
:1028D0001B789A42F9D13049304800F0B3FF00F03C
:1028E00089FF2B4B1B78022B10D0032B11D0012B0F
:1028F00009D0214B1B6840F642121A646420FEF78F
:10290000FDFC012414E001F00FF8F2E701F026F8D5
:10291000EFE701F03DF8ECE701F020F8164B1B68FB
:1029200040F642121A646420FEF7E8FC0134E4B277
:10293000022C35D8164B1A5D164B1B789A42F9D1EA
:1029400000F058FF124B1B5D022BE5D0032B04D087
:10295000012BE3D100F0E8FFE0E701F019F8DDE733
:102960004C170024E41700247C170024341A002498
:102970003C170024A0190024981700240C190024E7
:102980000010025840170024781700247417002400
:10299000441700246B1700246417002460170024D8
:1029A0004FF4C870FFF71CFA4FF4206001F09AFE54
:1029B00040F2F37001F08AFCA94B1868FDF704FEA1
:1029C000A5A3D3E90023FDF79FFCFEF7EFF8A54B85
:1029D000186041F28E2001F085FE4FF4FA70FFF787
:1029E00053F96420FEF78AFC9F4B1B78012B00F003
:1029F000B2809D4B1B78012B00F0EB809A4B1B782B
:102A0000022B00F03F81984B1B78022B00F07C8159
:102A1000954B1B78032B00F0BD81934B1B78032B48
:102A200000F0FE814FF44870FFF7DAF940F64850A5
:102A300001F058FE40F2F37001F048FC884B186832
:102A4000FDF7C2FD84A3D3E90023FDF75DFCFEF78B
:102A5000ADF8844B18604FF47A6001F043FE4FF4F8
:102A60009670FFF711F9804B1B78012B00F01E8246
:102A70007D4B1B78012B00F03A827B4B1B78022B9D
:102A800000F05682784B1B78022B00F07F82764B49
:102A90001B78032B00F09B82734B1B78032B00F0F9
:102AA000BB824FF4FA70FFF79BF941F2680001F026
:102AB0005DFF6B4D2868FDF787FD67A3D3E9002311
:102AC000FDF722FCFEF772F8664C206040F2F370CE
:102AD00001F002FD6420FEF711FC2B68236042F236
:102AE000107001F043FF40F2F37001F0F5FC642038
:102AF000FEF704FCD5ED007AB7EE007A77EEC77AE0
:102B0000C4ED007A40F6381001F030FF4FF4C87081
:102B1000FFF7BAF8544BDA78544B1B789A42F9D144
:102B20005349544800F08EFE00F064FE4E4BDB78B3
:102B3000022B00F09582032B00F09582012B00F010
:102B40008C824D4B1B6840F642121A64C820FEF777
:102B5000D5FB042496E2444B5B78022B7FF449AF0B
:102B6000414B9B78032B7FF444AF4449444800F029
:102B7000A1FE00F027FF40F2B63001F0B3FD00F0F7
:102B800057FF40F2B63001F0ADFD00F087FF40F294
:102B90006C7001F0EBFE00F041FE00F0C5FE364D1A
:102BA0002B6840F642141C6440F2B63001F09AFDE6
:102BB00000F034FE00F0D2FE2B681C6440F2B63008
:102BC00001F090FD00F02AFE00F0E2FE2B681C648C
:102BD0000FE7254B5B78032B7FF410AF224B9B78DC
:102BE000022B7FF40BAF2549254800F063FE00F06F
:102BF000E9FE40F26C7001F075FD00F04FFF40F20D
:102C0000B63001F0B3FE00F013FF40F2B63001F031
:102C1000ADFE00F003FE00F087FE174D2B6840F676
:102C200042141C6440F26C7001F05CFD00F0F6FD93
:102C300000F0AEFE2B681C6440F2B63001F096FE48
:102C400000F0ECFD00F08AFE2B681C6440F2B63008
:102C500001F048FDD2E600BF9A9999999999E93F08
:102C60004017002478170024441700246B17002411
:102C700064170024601700249817002466170024A6
:102C800062170024BD4B5B78012B7FF4BCAEBB4BBD
:102C90009B78032B7FF4B7AEB949BA4800F00AFE1F
:102CA00040F2B63001F01EFD00F0C2FE40F2B63038
:102CB00001F05CFE00F086FE40F26C7001F012FD47
:102CC00000F0ECFE40F2B63001F050FE00F0A6FD40
:102CD00000F044FEAC4D2B6840F642141C6440F2F8
:102CE000B63001F043FE00F099FD00F01DFE2B68A8
:102CF0001C6440F26C7001F0F5FC00F08FFD00F0F8
:102D000047FE2B681C647EE69C4B5B78032B7FF4AC
:102D10007FAE9A4B9B78012B7FF47AAE9849994805
:102D200000F0C8FD40F2B63001F0DCFC00F080FE9F
:102D300040F2B63001F0D6FC00F0B0FE40F26C700C
:102D400001F014FE00F03EFE40F2B63001F0CAFC85
:102D500000F064FD00F002FE8B4D2B6840F642143B
:102D60001C6440F2B63001F0BDFC00F057FD00F0ED
:102D70000FFE2B681C6440F26C7001F0F7FD00F050
:102D80004DFD00F0D1FD2B681C6440F26C7001F029
:102D9000A9FC3DE6794B5B78012B7FF43EAE774B87
:102DA0009B78022B7FF439AE7549764800F082FD9E
:102DB00040F26C7001F096FC00F070FE40F26C7016
:102DC00001F0D4FD00F0FEFD40F2B63001F08AFCC7
:102DD00000F02EFE40F2B63001F084FC00F01EFD43
:102DE00000F0D6FD684D2B6840F642141C6440F29A
:102DF0006C7001F0BBFD00F011FD00F095FD2B683B
:102E00001C6440F2B63001F06DFC00F007FD00F0EC
:102E1000A5FD2B681C6440F2B63001F063FCFCE5B4
:102E2000564B5B78022B7FF4FDAD544B9B78012B06
:102E30007FF4F8AD5249534800F03CFD40F26C700D
:102E400001F050FC00F02AFE40F2B63001F08EFD99
:102E500000F0EEFD40F2B63001F088FD00F0B2FD6A
:102E600040F26C7001F03EFC00F0D8FC00F090FDE8
:102E7000454D2B6840F642141C6440F2B63001F018
:102E800075FD00F0CBFC00F069FD2B681C6440F27E
:102E9000B63001F06BFD00F0C1FC00F045FD2B6881
:102EA0001C6440F26C7001F01DFCBBE5334B5B7899
:102EB000022B7FF4DDAD314B9B78032B7FF4D8AD33
:102EC0002F49304800F0F6FC00F07CFD40F2B630AF
:102ED00001F008FC00F0ACFD40F2B63001F002FC5D
:102EE00000F0DCFD40F26C7001F040FDC0E5234BCA
:102EF0005B78032B7FF4C1AD204B9B78022B7FF4D2
:102F0000BCAD1F491F4800F0D5FC00F05BFD40F24E
:102F10006C7001F0E7FB00F0C1FD40F2B63001F04B
:102F200025FD00F085FD40F2B63001F01FFDA4E55F
:102F3000124B5B78012B7FF4A5AD104B9B78032BD4
:102F40007FF4A0AD0E490F4800F0B4FC40F2B6305B
:102F500001F0C8FB00F06CFD40F2B63001F006FD58
:102F600000F030FD40F26C7001F0BCFB00F096FD0B
:102F700040F26C7001F0FAFC84E500BF44170024B5
:102F8000661700246217002498170024B24B5B7860
:102F9000032B7FF47CADB04B9B78012B7FF477AD96
:102FA000AE49AF4800F086FC40F2B63001F09AFB23
:102FB00000F03EFD40F2B63001F094FB00F06EFDF3
:102FC00040F26C7001F0D2FC00F0FCFC5FE5A24B1B
:102FD0005B78012B7FF460AD9F4B9B78022B7FF4D5
:102FE0005BAD9E499E4800F065FC40F26C7001F0BC
:102FF00079FB00F053FD40F26C7001F0B7FC00F07B
:10300000E1FC40F2B63001F06DFB00F011FD40F242
:10301000B63001F0ABFC3FE58F4B5B78022B7FF4C1
:1030200040AD8D4B9B78012B7FF43BAD8B498C4899
:1030300000F040FC40F26C7001F054FB00F02EFDFB
:1030400040F2B63001F092FC00F0F2FC40F2B630F3
:1030500001F08CFC00F0B6FC23E500F065FC70E5A7
:1030600000F07CFC6DE500F093FC6AE500F076FC76
:103070007C4B1B6840F642121A64C820FEF73EF9EA
:103080000134E4B2052C15D8734B1A5D764B1B78CE
:103090009A42F9D100F0AEFB6F4B1B5D022BE5D0DD
:1030A000032B04D0012BE3D100F03EFCE0E700F05D
:1030B0006FFCDDE74FF4C870FEF792FE4FF420601E
:1030C00001F010FB694D2B68694C236040F2F370EE
:1030D00001F0FCF82B68236041F28E2001F002FB26
:1030E0004FF4FA70FEF7D0FD6420FEF707F95A4B53
:1030F000DB78012B73D0584BDB78012B00F0BC80C0
:10310000554BDB78022B00F0F980534BDB78022B18
:1031100000F03681504BDB78032B00F077814E4B6B
:10312000DB78032B00F0B8814FF44870FEF758FEAF
:1031300040F6485001F0D6FA40F2F37001F0C6F8BC
:103140004A4BD3ED007AB6EE007A77EEC77A484B59
:10315000C3ED007A4FF47A6001F0C4FA4FF4967030
:10316000FEF792FD3C4BDB78012B00F0DB813A4B04
:10317000DB78012B00F0F781374BDB78022B00F076
:103180001B82354BDB78022B00F03B82324BDB7825
:10319000032B00F05782304BDB78032B00F0778253
:1031A0004FF4FA70FEF71CFE41F60A2001F09AFA7D
:1031B00040F2F37001F08AF82C4BD3ED007AB7EEB1
:1031C000007A77EEC77A2A4BC3ED007A9FED290A81
:1031D000FEF7C0FC42F6244001F084FAFEE71E4BE5
:1031E0001B79022B87D11C4B5B79032B83D11B49A5
:1031F0001B4800F05FFB00F0E5FB40F2B63001F049
:1032000071FA00F015FC40F2B63001F06BFA00F0F4
:1032100045FC40F26C7001F0A9FB00F0FFFA00F0F1
:1032200083FB104D2B6840F642141C6440F2B6300C
:1032300001F058FA00F0F2FA00F090FB2B681C64E1
:1032400040F2B63001F04EFA00F0E8FA00F0A0FBD0
:103250002B681C644FE700BF441700246617002446
:1032600062170024981700246B17002440170024CD
:103270007817002400000000CB4B1B79032B7FF450
:103280003FAFC94B5B79022B7FF43AAFC749C848BF
:1032900000F010FB00F096FB40F26C7001F022FA97
:1032A00000F0FCFB40F2B63001F060FB00F0C0FB28
:1032B00040F2B63001F05AFB00F0B0FA00F034FBF7
:1032C000BC4D2B6840F642141C6440F26C7001F057
:1032D00009FA00F0A3FA00F05BFB2B681C6440F2D3
:1032E000B63001F043FB00F099FA00F037FB2B6891
:1032F0001C6440F2B63001F0F5F901E7AA4B1B79E6
:10330000012B7FF402AFA84B5B79032B7FF4FDAE5A
:10331000A649A74800F0CEFA40F2B63001F0E2F933
:1033200000F086FB40F2B63001F020FB00F04AFBD3
:1033300040F26C7001F0D6F900F0B0FB40F2B6300C
:1033400001F014FB00F06AFA00F008FB994D2B68BD
:1033500040F642141C6440F2B63001F007FB00F066
:103360005DFA00F0E1FA2B681C6440F26C7001F029
:10337000B9F900F053FA00F00BFB2B681C64C4E6AB
:10338000894B1B79032B7FF4C5AE874B5B79012BEF
:103390007FF4C0AE8549864800F08CFA40F2B63022
:1033A00001F0A0F900F044FB40F2B63001F09AF9C8
:1033B00000F074FB40F26C7001F0D8FA00F002FBF0
:1033C00040F2B63001F08EF900F028FA00F0C6FAAB
:1033D000784D2B6840F642141C6440F2B63001F080
:1033E00081F900F01BFA00F0D3FA2B681C6440F25C
:1033F0006C7001F0BBFA00F011FA00F095FA2B683E
:103400001C6440F26C7001F06DF983E6664B1B7929
:10341000012B7FF484AE644B5B79022B7FF47FAE8B
:103420006249634800F046FA40F26C7001F05AF9C4
:1034300000F034FB40F26C7001F098FA00F0C2FA30
:1034400040F2B63001F04EF900F0F2FA40F2B63038
:1034500001F048F900F0E2F900F09AFA554D2B68B6
:1034600040F642141C6440F26C7001F07FFA00F0E8
:10347000D5F900F059FA2B681C6440F2B63001F01F
:1034800031F900F0CBF900F069FA2B681C6440F2C6
:10349000B63001F027F942E6434B1B79022B7FF44B
:1034A00043AE414B5B79012B7FF43EAE3F49404830
:1034B00000F000FA40F26C7001F014F900F0EEFA3E
:1034C00040F2B63001F052FA00F0B2FA40F2B630F3
:1034D00001F04CFA00F076FA40F26C7001F002F95B
:1034E00000F09CF900F054FA324D2B6840F642147B
:1034F0001C6440F2B63001F039FA00F08FF900F0A8
:103500002DFA2B681C6440F2B63001F02FFA00F05F
:1035100085F900F009FA2B681C6440F26C7001F028
:10352000E1F801E6204B1B79022B7FF420AE1E4B05
:103530005B79032B7FF41BAE1C491D4800F0BAF9E0
:1035400000F0E2FA40F2B63001F0CCF800F012FBE5
:1035500040F2B63001F0C6F800F042FB40F26C7069
:1035600001F004FA03E6104B1B79032B7FF404AE41
:103570000D4B5B79022B7FF4FFAD0C490C4800F03A
:1035800099F900F0C1FA40F26C7001F0ABF800F06C
:1035900027FB40F2B63001F0E9F900F0EBFA40F217
:1035A000B63001F0E3F9E7E544170024661700247C
:1035B0006217002498170024454B1B79012B7FF4D8
:1035C000E0AD434B5B79032B7FF4DBAD41494248CF
:1035D00000F070F940F2B63001F084F800F0CAFA59
:1035E00040F2B63001F0C2F900F08EFA40F26C7091
:1035F00001F078F800F0F4FA40F26C7001F0B6F9DE
:10360000BFE5334B1B79032B7FF4C0AD304B5B79A7
:10361000012B7FF4BBAD2F492F4800F04BF940F24E
:10362000B63001F05FF800F0A5FA40F2B63001F0D4
:1036300059F800F0D5FA40F26C7001F097F900F0FB
:1036400063FAA3E5224B1B79012B7FF4A4AD204B39
:103650005B79022B7FF49FAD1E491F4800F02AF9C9
:1036600040F26C7001F03EF800F0BAFA40F26C7073
:1036700001F07CF900F048FA40F2B63001F032F87F
:1036800000F078FA40F2B63001F070F983E5104BA3
:103690001B79022B7FF484AD0D4B5B79012B7FF4FA
:1036A0007FAD0C490C4800F005F940F26C7001F058
:1036B00019F800F095FA40F2B63001F057F900F031
:1036C00059FA40F2B63001F051F900F01DFA67E501
:1036D00044170024661700246217002408B5054B20
:1036E0001860054B1868002302221946806806F00E
:1036F000CDFA08BD8C170024940C0024022801D8B0
:103700000120704708B506F031FA09230360002054
:1037100008BD000010B5013801280AD814464FF042
:10372000FF3392B20748006805F03EFF40B92046DB
:1037300010BD06F01BFA092303604FF0FF30F7E7D6
:103740000520F5E78C170024022801D800207047D7
:1037500008B506F00BFA092303604FF0FF3008BDEF
:1037600008B506F003FA092303604FF0FF3008BDE7
:1037700008B548B94FF0FF3301220848006805F04A
:103780007BFF40B9012008BD06F0F0F90923036072
:103790004FF0FF30F7E70520F5E700BF8C17002456
:1037A00008B5022804D84FF400534B60002008BD30
:1037B00006F0DCF909230360F8E7000008230DE0B8
:1037C0000B4A4FF400019161094A4FF48001916165
:1037D000402191614000C0B2013BDBB233B110F037
:1037E000800FEDD0024A80219161EDE7704700BF64
:1037F0000004025808B540F6E44001F08BFA064B8D
:103800001B6840F2B6329A63C820FDF777FD40F698
:10381000E44001F0EFF908BD9817002408B541F61F
:10382000583001F077FA064B1B6840F2B6329A63C3
:10383000C820FDF763FD41F6583001F0DBF908BD03
:1038400098170024F8B507460E460488A4B2C43C75
:1038500024B20D88ADB2733D2DB212E0002C19DBFD
:10386000002C1BDC002D1DDC002D1FDB0520FDF7CF
:1038700045FD3C88A4B2C43C24B23588ADB2733D4A
:103880002DB2E31D9BB20E2BE8D8EB1D9BB20E2B85
:10389000E4D8F8BD012000F049FCE1E7012000F088
:1038A000ADFCDFE7012000F0D9FBDDE7012000F0EF
:1038B0006DFBDBE7F8B507460E460488A4B2923CE0
:1038C00024B20D88ADB26C3D2DB212E0002C1BDB92
:1038D000002C1DDC002D1FDC002D21DB0520FDF759
:1038E0000DFD3C88A4B2923C24B23588ADB26C3D4B
:1038F0002DB204F10E039BB21C2BE7D805F10E0389
:103900009BB21C2BE2D8F8BD012000F00FFCDFE7D2
:10391000012000F073FCDDE7012000F09FFBDBE7F6
:10392000012000F033FBD9E710B50B4C23684FF4AE
:10393000AA621A644FF4AF70FDF7E0FC4FF47A60AE
:1039400001F0E8F923684FF4E1629A634FF47A607A
:1039500001F050F910BD00BF9817002410B50B4CB2
:10396000236840F206421A644FF41670FDF7C6FC55
:103970004FF47A6001F0CEF923684FF4E1629A6364
:103980004FF47A6001F036F910BD00BF981700249B
:1039900010B50B4C23684FF42A721A644FF461700F
:1039A000FDF7ACFC4FF47A6001F0B4F923684FF4F2
:1039B000E1629A634FF47A6001F01CF910BD00BF18
:1039C0009817002438B5194C23684FF4AA621A647A
:1039D0004FF4AF70FDF792FC23684FF4E1659D63EF
:1039E0004FF47A6001F096F9236840F2B6329A6398
:1039F0006420FDF783FC4FF47A6001F0FBF8236844
:103A000040F642121A644FF4B970FDF777FC41F6A4
:103A1000583001F07FF923689D633220FDF76EFC7A
:103A200041F6583001F0E6F838BD00BF9817002481
:103A300038B5194C236840F206421A644FF41670E8
:103A4000FDF75CFC23684FF4E1659D634FF47A60F9
:103A500001F060F9236840F2B6329A636420FDF702
:103A60004DFC4FF47A6001F0C5F8236840F642122D
:103A70001A644FF4B970FDF741FC41F6583001F07B
:103A800049F923689D633220FDF738FC41F6583030
:103A900001F0B0F838BD00BF9817002438B5194CB4
:103AA00023684FF42A721A644FF49660FDF726FCDF
:103AB00023684FF4E1659D634FF47A6001F02AF9C1
:103AC000236840F2B6329A636420FDF717FC4FF486
:103AD0007A6001F08FF8236840F642121A644FF4BE
:103AE000B970FDF70BFC41F6583001F013F923686B
:103AF0009D633220FDF702FC41F6583001F07AF860
:103B000038BD00BF9817002438B5194C23684FF40E
:103B1000AA621A644FF4AF70FDF7F0FB23684FF40C
:103B2000E1659D634FF47A6001F0F4F8236840F298
:103B3000B6329A636420FDF7E1FB4FF47A6001F03E
:103B400059F8236840F642121A644FF4B970FDF731
:103B5000D5FB41F2941001F0DDF823689D6332201B
:103B6000FDF7CCFB41F2941001F044F838BD00BFE2
:103B70009817002438B5194C236840F206421A649D
:103B80004FF41670FDF7BAFB23684FF4E1659D63AF
:103B900041F2941001F0BEF8236840F2B6329A6305
:103BA0006420FDF7ABFB41F2941001F023F8236889
:103BB00040F642121A644FF4B970FDF79FFB41F2D0
:103BC000941001F0A7F823689D633220FDF796FB5F
:103BD00041F2941001F00EF838BD00BF9817002490
:103BE00038B5194C23684FF42A721A6440F2DC503D
:103BF000FDF784FB23684FF4E1659D6341F2941067
:103C000001F088F8236840F2B6329A636420FDF729
:103C100075FB41F2941000F0EDFF236840F642126C
:103C20001A644FF4B970FDF769FB41F2941001F08A
:103C300071F823689D633220FDF760FB41F2941018
:103C400000F0D8FF38BD00BF98170024F8B507462C
:103C50002D4D01221021284602F0ACF92B4C0022F8
:103C60000821204602F0A6F900222021284602F071
:103C7000A1F901221021204602F09CF9244B0022D8
:103C80001A603CE0204D4FF40051284602F098F9AC
:103C9000204C01224021204602F08CF90122802193
:103CA000204602F087F901228021284602F082F99D
:103CB000194E01224FF48051304602F07BF99620D4
:103CC000FDF7FCFA00224021204602F073F90022A1
:103CD0008021204602F06EF900228021284602F061
:103CE00069F900224FF48051304602F063F94FF435
:103CF0007A70FDF7E3FA064A136801331360044B48
:103D00001B68BB42BED3F8BD000802580010025821
:103D10009017002400000258000C0258F8B507461E
:103D20002D4D00221021284602F044F92B4C01228F
:103D30000821204602F03EF901222021284602F007
:103D400039F900221021204602F034F9244B0022D8
:103D50001A603CE0204D4FF40051284602F030F943
:103D6000204C01224021204602F024F9012280212A
:103D7000204602F01FF901228021284602F01AF99C
:103D8000194E01224FF48051304602F013F996206B
:103D9000FDF794FA00224021204602F00BF90022A0
:103DA0008021204602F006F900228021284602F0F8
:103DB00001F900224FF48051304602F0FBF840F246
:103DC000DC50FDF77BFA064A136801331360044B9D
:103DD0001B68BB42BED3F8BD000802580010025851
:103DE0009017002400000258000C0258F8B507464E
:103DF0002E4C01221021204602F0DCF80122202165
:103E0000204602F0D7F804F5006401221021204674
:103E100002F0D0F801220821204602F0CBF8244B12
:103E200000221A603CE0214D4FF40051284602F078
:103E3000C7F8204C01224021204602F0BBF80122A5
:103E40008021204602F0B6F801228021284602F0A7
:103E5000B1F8194E01224FF48051304602F0AAF811
:103E60009620FDF72BFA00224021204602F0A2F80E
:103E700000228021204602F09DF800228021284661
:103E800002F098F800224FF48051304602F092F888
:103E900045F6C050FDF712FA054A13680133136066
:103EA000034B1B68BB42BED3F8BD00BF00080258DD
:103EB0009017002400000258000C0258F8B507467D
:103EC0002E4C00221021204602F074F800222021FE
:103ED000204602F06FF804F500640022102120460D
:103EE00002F068F800220821204602F063F8244B13
:103EF00000221A603CE0214D4FF40051284602F0A8
:103F00005FF8204C01224021204602F053F80122A4
:103F10008021204602F04EF801228021284602F03E
:103F200049F8194E01224FF48051304602F042F810
:103F30009620FDF7C3F900224021204602F03AF80E
:103F400000228021204602F035F8002280212846F8
:103F500002F030F800224FF48051304602F02AF887
:103F60004FF4FA60FDF7AAF9054A136801331360AC
:103F7000034B1B68BB42BED3F8BD00BF000802580C
:103F80009017002400000258000C0258F8B50746AC
:103F90002E4C01221021204602F00CF80122202193
:103FA000204602F007F804F50064002210212046A4
:103FB00002F000F800220821204601F0FBFF244B0C
:103FC00000221A603CE0214D4FF40051284601F0D8
:103FD000F7FF204C01224021204601F0EBFF012297
:103FE0008021204601F0E6FF01228021284601F0D1
:103FF000E1FF194E01224FF48051304601F0DAFF03
:104000009620FDF75BF900224021204601F0D2FF07
:1040100000228021204601F0CDFF00228021284689
:1040200001F0C8FF00224FF48051304601F0C2FF7A
:104030004FF4FA60FDF742F9054A13680133136043
:10404000034B1B68BB42BED3F8BD00BF000802583B
:104050009017002400000258000C0258F8B50746DB
:104060002E4C00221021204601F0A4FF0022202126
:10407000204601F09FFF04F5006401221021204634
:1040800001F098FF01220821204601F093FF244B04
:1040900000221A603CE0214D4FF40051284601F007
:1040A0008FFF204C01224021204601F083FF012296
:1040B0008021204601F07EFF01228021284601F068
:1040C00079FF194E01224FF48051304601F072FF02
:1040D0009620FDF7F3F800224021204601F06AFF08
:1040E00000228021204601F065FF00228021284621
:1040F00001F060FF00224FF48051304601F05AFF7A
:104100004FF4FA60FDF7DAF8054A136801331360DB
:10411000034B1B68BB42BED3F8BD00BF000802586A
:104120009017002400000258000C0258F8B507460A
:104130002D4D00221021284601F03CFF2B4C01227E
:104140000821204601F036FF01222021284601F0F7
:1041500031FF00221021204601F02CFF244B0022C9
:104160001A603CE0204D4FF40051284601F028FF32
:10417000204C01224021204601F01CFF0122802119
:10418000204601F017FF01228021284601F012FF8E
:10419000194E01224FF48051304601F00BFF96205A
:1041A000FDF78CF800224021204601F003FF002299
:1041B0008021204601F0FEFE00228021284601F0E9
:1041C000F9FE00224FF48051304601F0F3FE4FF427
:1041D000FA60FDF773F8064A136801331360044B65
:1041E0001B68BB42BED3F8BD00080258001002583D
:1041F0009017002400000258000C0258F8B507463A
:104200002D4D01221021284601F0D4FE2B4C002216
:104210000821204601F0CEFE00222021284601F090
:10422000C9FE01221021204601F0C4FE244B0022C9
:104230001A603CE0204D4FF40051284601F0C0FECA
:10424000204C01224021204601F0B4FE01228021B1
:10425000204601F0AFFE01228021284601F0AAFE8F
:10426000194E01224FF48051304601F0A3FE9620F2
:10427000FDF724F800224021204601F09BFE002299
:104280008021204601F096FE00228021284601F080
:1042900091FE00224FF48051304601F08BFE4FF426
:1042A000FA60FDF70BF8064A136801331360044BFC
:1042B0001B68BB42BED3F8BD00080258001002586C
:1042C0009017002400000258000C02582DE9F0411C
:1042D00006467B4C00221021204601F06BFE002296
:1042E0002021204601F066FE04F500640022102122
:1042F000204601F05FFE00220821204601F05AFE10
:10430000704B00221A603EE06D4D4FF4005128467C
:1043100001F056FE6C4C01224021204601F04AFE7D
:1043200001228021204601F045FE012280212846FD
:1043300001F040FE654F01224FF48051384601F0F4
:1043400039FE9620FCF7BAFF00224021204601F0FA
:1043500031FE00228021204601F02CFE0022802127
:10436000284601F027FE00224FF48051384601F024
:1043700021FE544C2268564B53F82200FCF79EFF56
:104380002368013323604F4B1A68524B1B689A42D3
:10439000BAD300273EE04A4D4FF40051284601F0C1
:1043A0000FFE494C01224021204601F003FE01226C
:1043B0008021204601F0FEFD01228021284601F0E7
:1043C000F9FDDFF8088101224FF48051404601F0E9
:1043D000F1FD9620FCF772FF00224021204601F0FB
:1043E000E9FD00228021204601F0E4FD0022802129
:1043F000284601F0DFFD00224FF48051404601F0D5
:10440000D9FD344B1B68013B314A52F82300FCF7BD
:1044100055FF01372F4B1B68A6EB4303BB42BAD8AD
:10442000284B00221A6042E0254D4FF400512846E7
:1044300001F0C6FD244C01224021204601F0BAFDC6
:1044400001228021204601F0B5FD0122802128466D
:1044500001F0B0FD1D4E01224FF48051304601F0B5
:10446000A9FD9620FCF72AFF00224021204601F0FA
:10447000A1FD00228021204601F09CFD0022802128
:10448000284601F097FD00224FF48051304601F09C
:1044900091FD0C4C0F4B1B6822689B1A013B0C4A88
:1044A00052F82300FCF70AFF236801332360054B11
:1044B0001A68084B1B689A42B6D3BDE8F08100BF6A
:1044C000000802589017002400000258000C0258FF
:1044D00040060024800C00242DE9F04106467B4C68
:1044E00001221021204601F065FD012220212046F5
:1044F00001F060FD04F5006401221021204601F066
:1045000059FD01220821204601F054FD704B002284
:104510001A603EE06D4D4FF40051284601F050FD09
:104520006C4C01224021204601F044FD01228021F3
:10453000204601F03FFD01228021284601F03AFD8E
:10454000654F01224FF48051384601F033FD96202B
:10455000FCF7B4FE00224021204601F02BFD002292
:104560008021204601F026FD00228021284601F00E
:1045700021FD00224FF48051384601F01BFD544CC0
:104580002268564B53F82200FCF798FE236801334B
:1045900023604F4B1A68524B1B689A42BAD30027CC
:1045A0003EE04A4D4FF40051284601F009FD494CC8
:1045B00001224021204601F0FDFC012280212046FD
:1045C00001F0F8FC01228021284601F0F3FCDFF81D
:1045D000088101224FF48051404601F0EBFC962007
:1045E000FCF76CFE00224021204601F0E3FC002293
:1045F0008021204601F0DEFC00228021284601F0C7
:10460000D9FC00224FF48051404601F0D3FC344BDA
:104610001B68013B314A52F82300FCF74FFE01377B
:104620002F4B1B68A6EB4303BB42BAD8284B002292
:104630001A6042E0254D4FF40051284601F0C0FCBD
:10464000244C01224021204601F0B4FC01228021AB
:10465000204601F0AFFC01228021284601F0AAFC8F
:104660001D4E01224FF48051304601F0A3FC9620EC
:10467000FCF724FE00224021204601F09BFC002292
:104680008021204601F096FC00228021284601F07E
:1046900091FC00224FF48051304601F08BFC0C4C11
:1046A0000F4B1B6822689B1A013B0C4A52F82300EF
:1046B000FCF704FE236801332360054B1A68084B9E
:1046C0001B689A42B6D3BDE8F08100BF00080258CB
:1046D0009017002400000258000C025840060024E5
:1046E000800C00242DE9F04105469A4C012210214E
:1046F000204601F05FFC01222021204601F05AFCF7
:1047000004F5006400221021204601F053FC002231
:104710000821204601F04EFC8F4B00221A603EE03B
:104720008C4E4FF40051304601F04AFC8B4C012274
:104730004021204601F03EFC01228021204601F06C
:1047400039FC01228021304601F034FC844F0122E3
:104750004FF48051384601F02DFC9620FCF7AEFD59
:1047600000224021204601F025FC00228021204625
:1047700001F020FC00228021304601F01BFC0022C9
:104780004FF48051384601F015FC734C2268754B8C
:1047900053F82200FCF792FD2368013323606E4B2F
:1047A0001A68714B1B689A42BAD300263EE0694FE3
:1047B0004FF40051384601F003FC684C01224021BF
:1047C000204601F0F7FB01228021204601F0F2FB98
:1047D00001228021384601F0EDFBDFF884810122BF
:1047E0004FF48051404601F0E5FB9620FCF766FD52
:1047F00000224021204601F0DDFB002280212046DE
:1048000001F0D8FB00228021384601F0D3FB0022C2
:104810004FF48051404601F0CDFB534B1B68013BE8
:10482000504A52F82300FCF749FD01364E4B1B68F5
:10483000A5EB4303643BB342B9D8474B00221A604F
:1048400042E0444D4FF40051284601F0B9FB434C7F
:1048500001224021204601F0ADFB012280212046AB
:1048600001F0A8FB01228021284601F0A3FB3C4E69
:1048700001224FF48051304601F09CFB9620FCF75A
:104880001DFD00224021204601F094FB00228021E2
:10489000204601F08FFB00228021284601F08AFB90
:1048A00000224FF48051304601F084FB2A4C2E4BFD
:1048B0001B6822689B1A013B2A4A52F82300FCF726
:1048C000FDFC236801332360234B1A68264B1B68C9
:1048D0009A42B6D3002639E01E4D4FF400512846C7
:1048E00001F06EFB1D4C01224021204601F062FBCD
:1048F00001228021204601F05DFB01228021284613
:1049000001F058FB164F01224FF48051384601F058
:1049100051FB9620FCF7D2FC00224021204601F0FA
:1049200049FB00228021204601F044FB0022802127
:10493000284601F03FFB00224FF48051384601F039
:1049400039FB084B1868FCF7B9FC0136632EC3DD50
:10495000BDE8F081000802589017002400000258BA
:10496000000C025840060024800C00242DE9F04180
:1049700005469A4C00221021204601F01BFB002224
:104980002021204601F016FB04F5006401221021CD
:10499000204601F00FFB01220821204601F00AFB0E
:1049A0008F4B00221A603EE08C4E4FF4005130468F
:1049B00001F006FB8B4C01224021204601F0FAFA5F
:1049C00001228021204601F0F5FA012280213046A3
:1049D00001F0F0FA844F01224FF48051384601F083
:1049E000E9FA9620FCF76AFC00224021204601F0FB
:1049F000E1FA00228021204601F0DCFA0022802129
:104A0000304601F0D7FA00224FF48051384601F0C9
:104A1000D1FA734C2268754B53F82200FCF74EFC18
:104A20002368013323606E4B1A68714B1B689A42EE
:104A3000BAD300263EE0694F4FF40051384601F0EA
:104A4000BFFA684C01224021204601F0B3FA01224E
:104A50008021204601F0AEFA01228021384601F083
:104A6000A9FADFF8848101224FF48051404601F019
:104A7000A1FA9620FCF722FC00224021204601F0FA
:104A800099FA00228021204601F094FA0022802128
:104A9000384601F08FFA00224FF48051404601F071
:104AA00089FA534B1B68013B504A52F82300FCF72C
:104AB00005FC01364E4B1B68A5EB4303643BB34238
:104AC000B9D8474B00221A6042E0444D4FF40051E0
:104AD000284601F075FA434C01224021204601F09E
:104AE00069FA01228021204601F064FA0122802126
:104AF000284601F05FFA3C4E01224FF480513046C7
:104B000001F058FA9620FCF7D9FB002240212046FC
:104B100001F050FA00228021204601F04BFA0022D9
:104B20008021284601F046FA00224FF48051304699
:104B300001F040FA2A4C2E4B1B6822689B1A013B5D
:104B40002A4A52F82300FCF7B9FB2368013323609B
:104B5000234B1A68264B1B689A42B6D3002639E0CD
:104B60001E4D4FF40051284601F02AFA1D4C012237
:104B70004021204601F01EFA01228021204601F04A
:104B800019FA01228021284601F014FA164F012259
:104B90004FF48051384601F00DFA9620FCF78EFB59
:104BA00000224021204601F005FA00228021204603
:104BB00001F000FA00228021284601F0FBF90022D2
:104BC0004FF48051384601F0F5F9084B1868FCF7AE
:104BD00075FB0136632EC3DDBDE8F0810008025885
:104BE0009017002400000258000C025840060024D0
:104BF000800C002470B5054600224FF480614048C7
:104C000001F0D8F93F4B00221A601EE03E4C4FF4F1
:104C10000051204601F0D4F901224FF48071204662
:104C200001F0C8F99620FCF749FB00224FF480718F
:104C3000204601F0BFF9334C2268344B53F8220070
:104C4000FCF73CFB2368013323602E4B1A68304B82
:104C50001B689A42DAD300261DE02B4C4FF400511A
:104C6000204601F0ADF901224FF48071204601F099
:104C7000A1F99620FCF722FB00224FF48071204618
:104C800001F098F9224B1B68013B204A52F823009F
:104C9000FCF714FB01361E4B1B68A5EB4303143BCA
:104CA000B342DAD8174B00221A6022E0164C4FF4B8
:104CB0000051204601F084F901224FF48071204612
:104CC00001F078F99620FCF7F9FA00224FF4807190
:104CD000204601F06FF90B4C0D4B1B6822689B1AA4
:104CE000013B0A4A52F82300FCF7E8FA2368013333
:104CF0002360044B1A68064B1B689A42D6D370BDDA
:104D0000000C0258901700240008025800000024EC
:104D1000800C002470B5054601224FF480614048A4
:104D200001F048F93F4B00221A601EE03E4C4FF460
:104D30000051204601F044F901224FF480712046D1
:104D400001F038F99620FCF7B9FA00224FF480718F
:104D5000204601F02FF9334C2268344B53F82200DF
:104D6000FCF7ACFA2368013323602E4B1A68304BF2
:104D70001B689A42DAD300261DE02B4C4FF40051F9
:104D8000204601F01DF901224FF48071204601F008
:104D900011F99620FCF792FA00224FF48071204618
:104DA00001F008F9224B1B68013B204A52F823000E
:104DB000FCF784FA01361E4B1B68A5EB4303143B3A
:104DC000B342DAD8174B00221A6022E0164C4FF497
:104DD0000051204601F0F4F801224FF48071204682
:104DE00001F0E8F89620FCF769FA00224FF4807190
:104DF000204601F0DFF80B4C0D4B1B6822689B1A14
:104E0000013B0A4A52F82300FCF758FA23680133A1
:104E10002360044B1A68064B1B689A42D6D370BDB8
:104E2000000C0258901700240008025800000024CB
:104E3000800C002400B583B0094BD3F8F42042F075
:104E40000202C3F8F420D3F8F43003F00203019314
:104E5000019B042000F05CFC03B05DF804FB00BF84
:104E600000440258FEE7FEE7FEE7FEE7FEE7704774
:104E70007047704708B500F033FC08BD08B502481C
:104E800003F05EFB08BD00BFE417002408B502482C
:104E900003F056FB08BD00BFA019002408B5024866
:104EA00003F04EFB08BD00BF341A002401207047F8
:104EB00008B504F05BFE162303604FF0FF3008BD19
:104EC00008B54FF0FF31FFF7F3FFFEE710B50346DB
:104ED0000C4A0D490D48006840B10C480068034475
:104EE000521A934206D8094A136010BD0748084C6D
:104EF0000460F2E704F03AFE0C2303604FF0FF3049
:104F0000F3E700BF00000824000400009417002409
:104F1000181B0024274AD2F8883043F47003C2F8E3
:104F20008830254B1B6803F00F03062B06D8224A56
:104F3000136823F00F0343F0070313601F4B1A6835
:104F400042F001021A6000221A6119681C4A0A40E4
:104F50001A60194B1B6813F0080F06D0164A136825
:104F600023F00F0343F007031360144B00229A61F0
:104F7000DA611A62134999621349D96213491963B4
:104F80005A639963DA6319645A64196821F48021B9
:104F900019601A660E4B1A680E4B1340B3F1005F8E
:104FA00003D20D4B0122C3F808210C4B43F2D2026D
:104FB0001A60704700ED00E00020005200440258E3
:104FC0007FEDF6EA000202020000FF01800201010B
:104FD0000010005C0000FFFF008000510040005204
:104FE0000368B3F1804F00D0704782B0074BD3F80D
:104FF000E82042F00102C3F8E820D3F8E83003F0DB
:1050000001030193019B02B0704700BF00440258A6
:1050100000B587B000230193029303930493059393
:105020000368B3F1804F02D007B05DF804FB0C4B6E
:10503000D3F8E02042F00102C3F8E020D3F8E030DA
:1050400003F001030093009B0E23019302230293BC
:105050000123059301A9034800F09CFEE4E700BF8B
:10506000004402580000025800B58BB0002307939B
:105070000893099300930193029303930493059378
:10508000069322484FF080420260EF224260836024
:1050900044F61F62C26003618023836102F0DAFF7D
:1050A00028BB00230793099307A9184803F0ACF91C
:1050B00000BB602300930023019302930493042216
:1050C0006946124803F040F8B8B9082269460F480B
:1050D00003F03AF8A0B90C2269460C4803F034F802
:1050E00088B90A48FFF794FF0BB05DF804FBFDF7A1
:1050F000DBFAD6E7FDF7D8FADBE7FDF7D5FAE4E708
:10510000FDF7D2FAE7E7FDF7CFFAEAE798170024B0
:1051100008B51748174B03604FF4E1334360002391
:105120008360C36003610C2242618361C3610362D7
:105130004362836204F090FB70B900210C4804F0D4
:10514000CBFC60B900210A4804F0EBFC50B90848D8
:1051500004F0A3FC48B908BDFDF7A6FAEDE7FDF79A
:10516000A3FAEFE7FDF7A0FAF1E7FDF79DFAF2E702
:105170000C190024004C004008B51748174B036079
:105180004FF4E133436000238360C36003610C226A
:1051900042618361C36103624362836204F05CFB2A
:1051A00070B900210C4804F097FC60B900210A484E
:1051B00004F0B7FC50B9084804F06FFC48B908BDCA
:1051C000FDF772FAEDE7FDF76FFAEFE7FDF76CFA1E
:1051D000F1E7FDF769FAF2E7A0190024005000405A
:1051E00008B51748174B03604FF41653436000236C
:1051F0008360C36003610C2242618361C361036207
:105200004362836204F028FB70B900210C4804F06B
:1052100063FC60B900210A4804F083FC50B90848D7
:1052200004F03BFC48B908BDFDF73EFAEDE7FDF799
:105230003BFAEFE7FDF738FAF1E7FDF735FAF2E769
:10524000341A00240078004008B51748174B036053
:105250004FF41653436000238360C36003610C2244
:1052600042618361C36103624362836204F0F4FAC2
:1052700070B900210C4804F02FFC60B900210A48E5
:1052800004F04FFC50B9084804F007FC48B908BDC9
:10529000FDF70AFAEDE7FDF707FAEFE7FDF704FA85
:1052A000F1E7FDF701FAF2E7E417002400100140EE
:1052B00008B51748174B03604FF41653436000239B
:1052C0008360C36003610C2242618361C361036236
:1052D0004362836204F0C0FA70B900210C4804F004
:1052E000FBFB60B900210A4804F01BFC50B90848D8
:1052F00004F0D3FB48B908BDFDF7D6F9EDE7FDF79B
:10530000D3F9EFE7FDF7D0F9F1E7FDF7CDF9F2E7D3
:10531000781800240048004070B5C2B0044600214F
:105320003D913E913F9140914191C0220CA804F0E3
:1053300047FC2368A04A93420FD0A04A93423FD033
:105340009F4A934277D09F4A934200F0C6809E4A7C
:10535000934200F0FD8042B070BD02220023CDE9EF
:105360000C230CA801F050FD38BB984BD3F8E82073
:1053700042F40022C3F8E820D3F8E82002F4002227
:105380000192019AD3F8E02042F00102C3F8E02034
:10539000D3F8E03003F001030293029B4FF4C053B3
:1053A0003D9302233E9300233F9340930623419372
:1053B0003DA9874800F0EEFCCDE7FDF775F9D4E78D
:1053C00002220023CDE90C230CA801F01DFD78BBBF
:1053D0007E4BD3F8E82042F48012C3F8E820D3F8DB
:1053E000E82002F480120392039AD3F8E02042F0FE
:1053F0000202C3F8E020D3F8E03003F00203049384
:10540000049B4FF440533D9302233E9300243F946A
:1054100040940E2341933DA96E4800F0BBFC224608
:105420002146352000F086F9352000F0B9F992E7E1
:10543000FDF73AF9CCE702220023CDE90C230CA8B2
:1054400001F0E2FC002845D1604BD3F8E82042F09F
:105450008042C3F8E820D3F8E82002F080420592A9
:10546000059AD3F8E02042F01002C3F8E020D3F808
:10547000E02002F010020692069AD3F8E02042F0F3
:105480000102C3F8E020D3F8E03003F001030793F2
:10549000079B4FF480763D9602253E9500243F946D
:1054A0004094072341933DA94B4800F073FC3D967F
:1054B0003E953F9440940B2341933DA9444800F00E
:1054C00069FC22460321522000F034F9522000F0FA
:1054D00067F940E7FDF7E8F8B6E701220023CDE9D8
:1054E0000C230CA801F090FC78BB384BD3F8F020CB
:1054F00042F01002C3F8F020D3F8F02002F01002BE
:105500000892089AD3F8E02042F00102C3F8E020A4
:10551000D3F8E03003F001030993099B4FF4C06313
:105520003D9302233E9300243F94409407234193EC
:105530003DA9274800F02EFC01222146252000F03D
:10554000F9F8252000F02CF905E7FDF7ADF8CCE7D8
:1055500002220023CDE90C230CA801F055FC38BB36
:105560001A4BD3F8E82042F48022C3F8E820D3F89D
:10557000E82002F480220A920A9AD3F8E02042F04E
:105580000802C3F8E020D3F8E03003F008030B93DF
:105590000B9B4FF440733D9302233E9300233F93B4
:1055A0004093072341933DA90C4800F0F3FBD2E65A
:1055B000FDF77AF8D4E700BF004C004000500040EF
:1055C00000780040001001400048004000440258AC
:1055D000000002580004025800100258000C025843
:1055E000DFF834D0FFF796FC0C480D490D4A002334
:1055F00002E0D458C4500433C4188C42F9D30A4A88
:105600000A4C002301E013600432A242FBD304F0F1
:10561000B3FAFDF7D5F87047000008240000002415
:1056200040160024B402010840160024141B002474
:10563000FEE70000104B1B780BB90120704710B536
:1056400004464FF47A70B0FBF3F30C4A1068B0FBD9
:10565000F3F000F0B3F868B90F2C01D901200AE08B
:10566000002221464FF0FF3000F064F8044B1C602C
:10567000002000E0012010BD8C0C0024840C0024CC
:10568000900C002410B5032000F042F801F026F839
:105690000F498B69C3F303230E4AD35C03F01F0346
:1056A000D8408B6903F00F03D35C03F01F0320FA8B
:1056B00003F3094A1360094B18600720FFF7BAFF8C
:1056C00010B10124204610BD0446FFF7B3FBF9E7F3
:1056D0000044025868FE0008880C0024840C002452
:1056E000034B1B78034A11680B441360704700BFDB
:1056F0008C0C0024C81A0024014B1868704700BFA6
:10570000C81A0024014B1868000C70470010005C98
:105710000649CB6823F4E0631B041B0C000200F471
:10572000E0600343024A1A43CA60704700ED00E09C
:105730000000FA0500B5174BDB68C3F30223C3F181
:10574000070CBCF1040F28BF4FF0040C03F1040E4A
:10575000BEF1060F14D9033B4FF0FF3E0EFA0CFCCE
:1057600021EA0C0199400EFA03F322EA03031943DC
:10577000002807DB0901C9B2074B19545DF804FB87
:105780000023E9E700F00F000901C9B2034B1954E7
:10579000F4E700BF00ED00E000E400E014ED00E0FD
:1057A000002807DB00F01F02400901239340024A52
:1057B00042F82030704700BF00E100E00138B0F14E
:1057C000807F0BD24FF0E0235861054AF02182F828
:1057D00023100020986107221A617047012070474A
:1057E00000ED00E070B50446FFF786FF002C00F0E6
:1057F0009181054694F83530DBB2022B06D0802328
:105800006365002384F83430012070BD23688C491F
:105810008C4A934218BF8B4230D0183293422DD01D
:10582000183293422AD01832934227D0183293422A
:1058300024D01832934221D0183293421ED002F560
:10584000567293421AD01832934217D018329342AC
:1058500014D01832934211D0183293420ED018321D
:1058600093420BD01832934208D01832934205D09D
:105870001A6822F00E021A60266809E01A6822F0FF
:105880001E021A602268536923F080035361266860
:1058900023686B496B4A934218BF8B4242D018323F
:1058A00093423FD0183293423CD01832934239D0C1
:1058B0001832934236D01832934233D01832934282
:1058C00030D002F5567293422CD01832934229D030
:1058D0001832934226D01832934223D01832934282
:1058E00020D0183293421DD0183293421AD0183269
:1058F000934217D0544A934214D01432934211D099
:10590000143293420ED0143293420BD0143293428D
:1059100008D01432934205D01432934202D014328C
:10592000934204D1226E136823F4807313602368BA
:105930004349444A934218BF8B422FD018329342B6
:105940002CD01832934229D01832934226D01832E4
:10595000934223D01832934220D0183293421DD064
:1059600002F55672934219D01832934216D018326B
:10597000934213D01832934210D0183293420DD074
:10598000183293420AD01832934207D01832934209
:1059900004D01A6822F001021A6003E01A6822F0AB
:1059A00001021A60336813F0010F0ED0FFF7A4FE56
:1059B000431B052BF6D920236365032384F8353078
:1059C000002384F8343001201FE723681C491D4A56
:1059D000934218BF8B4239D01832934236D01832D6
:1059E000934233D01832934230D0183293422DD0A4
:1059F000183293422AD01832934227D002F55672B9
:105A0000934223D01832934220D0183293421DD0B3
:105A1000183293421AD01832934217D01832934258
:105A200014D01832934211D0183293420ED0A16D87
:105A3000E36D03F01F02012393404B600DE000BFB4
:105A4000100002402800024008540258A16DE36D86
:105A500003F01F023F2393408B6023682E492F4A97
:105A6000934218BF8B4242D0183293423FD0183233
:105A700093423CD01832934239D01832934236D0F8
:105A80001832934233D01832934230D002F5567216
:105A900093422CD01832934229D01832934226D008
:105AA0001832934223D01832934220D018329342B6
:105AB0001DD0183293421AD01832934217D0184A88
:105AC000934214D01432934211D0143293420ED028
:105AD000143293420BD01432934208D014329342C2
:105AE00005D01432934202D0143293420BD1636E2C
:105AF000A26E5A60E36E33B11A6822F480721A60A3
